:020000040801F1
:1000000000040020FD020108FF020108FF020108B0
:10001000FF020108FF020108FF020108FF020108B8
:10002000FF020108FF020108FF020108915F0108B9
:10003000FF020108FF020108FF020108FF02010898
:10004000FF020108FF020108FF020108FF02010888
:10005000FF020108FF020108FF020108FF02010878
:10006000FF020108FF020108FF020108FF02010868
:10007000FF020108FF020108FF020108FF02010858
:10008000FF020108FF020108FF020108FF02010848
:10009000FF020108FF020108FF020108FF02010838
:1000A000FF020108FF020108FF020108FF02010828
:1000B000A36B0108B16B0108FF020108FF020108F0
:1000C000FF020108FF020108FF020108FF02010808
:1000D000FF020108FF020108FF020108FF020108F8
:1000E000FF020108FF020108FF020108FF020108E8
:1000F000FF020108FF020108FF020108FF020108D8
:10010000FF020108FF020108FF020108FF020108C7
:10011000FF020108FF020108FF020108FF020108B7
:10012000FF020108FF020108FF020108FF020108A7
:10013000FF020108FF020108FF020108FF02010897
:10014000FF020108FF020108FF020108057701080C
:10015000FF020108FF020108FF020108FF02010877
:10016000FF020108FF020108FF020108FF02010867
:10017000FF020108FF020108FF020108FF02010857
:10018000FF020108FF020108FF020108FF02010847
:10019000FF020108FF020108FF020108FF02010837
:1001A000FF020108FF020108FF020108FF02010827
:1001B000FF020108FF020108FF020108FF02010817
:1001C000FF020108FF020108FF020108FF02010807
:1001D000FF020108FF020108FF020108FF020108F7
:1001E00072B6374880F30888364880F30988364865
:1001F0003649086040F20000CCF200004EF634713F
:10020000CEF200010860BFF34F8FBFF36F8F40F253
:100210000000C0F2F0004EF68851CEF200010860F6
:10022000BFF34F8FBFF36F8F4FF00000E1EE100A66
:100230004EF63C71CEF200010860062080F314886F
:10024000BFF36F8F05F008FB05F0E6F84FF055306F
:100250001F491B4A91423CBF41F8040BFAE71D4974
:10026000184A91423CBF41F8040BFAE71A491B4A6D
:100270001B4B9A423EBF51F8040B42F8040BF8E7BF
:1002800000201849184A91423CBF41F8040BFAE794
:1002900005F0E6FA05F0E1FA144C154DAC4203DA2C
:1002A00054F8041B8847F9E702F04AF8114C124D44
:1002B000AC4203DA54F8041B8847F9E705F0CEBADC
:1002C00000040020000C00200000010808ED00E000
:1002D0000000002000040020F4880108000C002029
:1002E000800D0020800D0020C41B0020E0010108CB
:1002F000E0010108E0010108E001010870E700F0F9
:1003000000F8FEE72DE9F04F2DED108AC1F80CD072
:10031000C3689D46BDEC108ABDE8F08F002383F3CF
:1003200011882846A047002005F038FDFEE705F0BB
:1003300091FC00DFFEE7000053B94AB9002908BF6D
:1003400000281CBF4FF0FF314FF0FF3000F00CB819
:10035000ADF1080C6DE904CE07F012FCDDF804E005
:10036000DDE9022304B07047704700BF00000000C1
:1003700001F0FF01102A2BDB10F0070F08D010F856
:10038000013B013A8B422DD010F0070F42B3F6D15A
:10039000F0B441EA012141EA014122F007047FF073
:1003A00000070023F0E80256083C85EA010586EACA
:1003B000010685FA47F5A3FA87F586FA47F6A5FA06
:1003C00087F68EB9EED1F0BC01F0FF0102F0070212
:1003D00032B110F8013B013A83EA010313B1F8D1BD
:1003E0000020704701387047002D06BF354603389E
:1003F000073815F0010F07D1013015F4807F02BFD7
:10040000013015F4C03F0130F0BC0138704700BF27
:10041000032A70B515D940EA010C1CF0030F0446FD
:100420000B4621D1194620460E680568B54204F1F5
:10043000040403F1040317D1043A032A20461946A1
:10044000F0D8541EA2B100F1FF3C013901E0C318FD
:100450000CD01CF801EF11F8012F9645A4EB0C030A
:10046000F5D0AEEB020070BD541EECE7184670BD2F
:10047000104670BD844641EA000313F003036DD1BA
:10048000403A41D351F8043B40F8043B51F8043B57
:1004900040F8043B51F8043B40F8043B51F8043B5E
:1004A00040F8043B51F8043B40F8043B51F8043B4E
:1004B00040F8043B51F8043B40F8043B51F8043B3E
:1004C00040F8043B51F8043B40F8043B51F8043B2E
:1004D00040F8043B51F8043B40F8043B51F8043B1E
:1004E00040F8043B51F8043B40F8043B51F8043B0E
:1004F00040F8043B51F8043B40F8043B51F8043BFE
:1005000040F8043B403ABDD2303211D351F8043B9D
:1005100040F8043B51F8043B40F8043B51F8043BDD
:1005200040F8043B51F8043B40F8043B103AEDD24C
:100530000C3205D351F8043B40F8043B043AF9D29D
:10054000043208D0D2071CBF11F8013B00F8013B70
:1005500001D30B8803806046704700BF082A13D37D
:100560008B078DD010F003038AD0C3F10403D21A95
:10057000DB071CBF11F8013B00F8013B80D331F8C9
:10058000023B20F8023B7BE7043AD9D3013A11F849
:10059000013B00F8013BF9D20B7803704B784370B4
:1005A0008B78837060467047830730B548D0541EFF
:1005B000002A3FD0CAB2034601E0013C3AD303F817
:1005C000012B9D07F9D1032C2DD9CDB245EA052584
:1005D0000F2C45EA054536D9A4F1100222F00F0C84
:1005E00003F1200EE6444FEA121C03F1100242E927
:1005F000045542E9025510327245F8D10CF101025E
:1006000014F00C0F03EB021204F00F0C13D0ACF13A
:10061000040323F003030433134442F8045B9342BE
:10062000FBD10CF003042CB1CAB21C4403F8012B1B
:100630009C42FBD130BD64461346002CF4D1F9E74F
:1006400003461446BFE71A46A446E0E7F0B50E4657
:1006500085B00446F8B901236F4602ADF1B18DF8BB
:100660000230ADF8000004F089FB40F00100ADF865
:10067000040097E8030000F0A1F9ADF808408DF8F8
:100680000A4004F07BFB40F00100ADF80C0095E857
:10069000030000F093F9012005B0F0BD02248DF8AD
:1006A0000230ADF8004004F069FB40F00100ADF805
:1006B000040097E8030000F081F9ADF808408DF8D8
:1006C0000A60DEE70720704706280CD805290AD8FB
:1006D000032A08D8062303FB001102EB8102034B17
:1006E00033F8120070470020704700BF227F0108D6
:1006F000012070470120704708B5FFF7FBFF08BDD8
:10070000704708B5FFF7FCFF08BD000013B502AB4A
:1007100003E903000F4B1B78B3B99DF8023073B1A6
:100720006AB100F099FD04460146009800F066FDAC
:100730000099204602B0BDE8104001F087BB009848
:1007400000F074FD0446F3E7009800F085FD009981
:10075000F0E700BF880D0020034610B400885C88D5
:100760000A4640EA044099885DF8044BFFF7CEBF83
:100770000120704710B500210446FFF7EDFF214628
:10078000FFF7BFFF10BD10B5012404FA02F204FA0E
:1007900001F11143CAB20140914204FA03F406BFC9
:1007A0002043C0B2A04310BD08B513460A46014617
:1007B00003480078FFF7E7FFBDE8084000F0A6BC5B
:1007C000920D002001F081BC01F084BC704708B597
:1007D00000F01EFCFFF7FAFFBDE8084046F2A81043
:1007E00005F0E1BA08B5FFF7F2FFBDE8084004F0F4
:1007F000EDBA08B5FFF7EBFFBDE8084004F0E2BA38
:1008000038B501210546FFF7A7FF2946044603F046
:100810006BFF002840D02946204603F030FAD8B3B9
:1008200029462046FFF768FFB0B32946204604F06A
:1008300065F888B32946204603F0C0FB60B329461B
:10084000204603F0D1FF38B32946204603F0CCF808
:1008500010B3AB787BB147F65A439C4223D00ED8F5
:1008600047F601439C421BD047F603439C4215D0F8
:10087000B4F5F84F0ED02846FFF73AFF0DE047F6E3
:100880005B439C4212D047F65C439C42F3D101F09B
:10089000A7F8F0E7FFF7A6FF002038BD01F0B2F897
:1008A000FFF7A7FFF8E701F0A7F8E4E701F0A7F8E2
:1008B000E1E708B504F0D5F900F05EF8BDE80840BE
:1008C00002F0F8BE08B500F05CF802F0DDFFBDE80C
:1008D000084004F0CBB9704708B5FFF7FCFF08BD2E
:1008E000012070470C4BC043C2B210F0010F4FF013
:1008F000080114BF1983598312F0020F4FF0100141
:1009000014BF1983598312F0040F4FF0200214BF53
:100910001A835A83704700BF0004024038B5054669
:10092000FFF7DEFF044610B12846FFF7DBFF204645
:1009300038BD000010B50B4C01220821204606F0FE
:100940002EFB0823238301221021204606F027FBDB
:100950001023238301222021204606F020FB2023A0
:10096000238310BD0004024010B50446FFF7B4FF16
:100970002046FFF7D3FF10BD08B50020FFF7F4FFB6
:1009800008BD08B504F00EF8FFF7EEFF08BD000043
:1009900010B504F007F8074B1A788242044607D0D6
:1009A000187004F0B5F9044B18602046FFF7DCFF1F
:1009B00010BD00BF800D0020840D002030B587B031
:1009C0006C4684E803009DF80230BDF804500BB17A
:1009D00000F048FF0023ADF8163094E8030004ACA3
:1009E0000490ADF8141094E8030002904DB1BDF8E6
:1009F00008204FF6FF739A4203D02046FFF7B8FE57
:100A000018B194E8030000F061FE07B030BD008823
:100A100000F042BC08B529B101F008FDBDE808406E
:100A200001F0E2BD01F054FDF8E7000010B5044606
:100A3000002843D0031FDBB2A02B11D8204B014666
:100A4000186804F02DF820B1204600F0B7FE00F041
:100A500039FF204600F0AAFEBDE8104000F032BF8A
:100A600000F12003DBB2072B07D800F007040120B8
:100A7000A040C0B200F0D0FEEEE700F15B03DBB2B5
:100A8000022B05D82438BDE8104080B203F0B4BF73
:100A900000F15803DBB2182B06D80A4ABDE8104013
:100AA00032F8130003F0C4BF3334E4B2122C05D87B
:100AB00001F0BCFCBDE8104001F096BD10BD00BFC8
:100AC000000C00207280010808B50346A0B3021F85
:100AD000D2B2A02A05D800F071FEBDE8084000F0AF
:100AE000F1BE00F12002D2B2072A07D800F00703B6
:100AF00001209840C0B200F097FEEEE700F15B02E3
:100B0000D2B2022A04D8BDE80840002003F074BF26
:100B100000F15802D2B2182A04D8BDE808400020DB
:100B200003F086BF3333DBB2122B05D801F0D0FCC3
:100B3000BDE8084001F058BD08BD38B505460C4673
:100B4000FFF774FF1CB92846FFF7BEFF38BD6420CD
:100B5000013C05F028F9A4B2F4E708B539280CBF28
:100B600050210021FFF7E9FF08BD08B528B100F0CA
:100B700053FEBDE8084000F0A5BE08BD08B528B189
:100B800000F052FEBDE8084000F09CBE08BD000029
:100B90002DE9F84390F80680857881460C4600F0F0
:100BA0002BFE4FEA18180646C8B12E46BDB1C4F355
:100BB000072303F0F003402B04D004F12003DBB241
:100BC000072B1ED9A94B5E7816F0040607D0022029
:100BD00000F0D2FE00F010FE80F00106F6B2C4F381
:100BE00003330B2B66D8DFE813F00E000E003C0039
:100BF0003C00C300DA0065006500DF0046015801D3
:100C000058010026EBE7C4F30723C4F303270F2B97
:100C100088BF3F01E4B285B157B104F12003DBB2D4
:100C2000072B384600D92CB900F0F6FD00F04AFE3B
:100C300020463DE000F006FEF8E72046FFF744FFBF
:100C4000002F37D004F12003DBB2072B384600D940
:100C500014B900F0E9FD01E000F0FCFD00F032FE07
:100C600028E0C4F3072303F0F003C4F30327202B89
:100C7000E4B218BF3F017CB1012C61D0002D69D0D6
:100C8000B8F1000F60D099F80630D907D0D56FF3CE
:100C9000071389F8063057E0744B5B78580728D45F
:100CA00005B327B1384600F0B7FD00F00BFE002079
:100CB000FFF7BCFE002E00F0518100F095FD10F012
:100CC000010040F04B8189F8020000F085FD00F042
:100CD0002FFA484600F058F900F07EFDBDE8F843D1
:100CE00000F030BA2846FFF7EFFE002FE2D038467A
:100CF000AFE79DB1B8F1000F06D100F0B9FD384360
:100D0000C0B2FFF732FFD5E7B8F1010FF5D100F01F
:100D1000AFFD3843C0B200F0B7FDCBE7B8F1000F2C
:100D200005D100F0C3FD3846FFF728FFC2E7B8F150
:100D3000010FBFD03846FFF721FF00F0B7FDB9E73C
:100D400025B1B8F1050FB5D83846DAE7B8F1040F88
:100D5000B0D8E8E7B8F1000FE5D0392C0CBF4FF45C
:100D6000FA50012005F01FF82046FFF7ADFEA1E77D
:100D700014F4406FC4F3812307D0012B9AD165B1DD
:100D8000C4F3090003F054FE94E725B1C4F309004D
:100D900003F032FE8EE72846FAE72846F2E72946B6
:100DA000E0B2FFF737FE85E714F4407F2ED1FDB99E
:100DB000C4F3421314F010004FEA830318BF0F204E
:100DC000DBB218BF984004F00F0218BFC04302FA0C
:100DD00003F2C4F3812418BFC0B2D2B2022C40EA9D
:100DE00002000DD0032C0ED0012C06D000F078F9B3
:100DF00003F0D8FDFFF7B8FD5CE700F069F9F7E70D
:100E000000F076F9F4E700F060F9F1E7C4F30122AD
:100E100015B3D207ECD5C4F3421214F010034FEA15
:100E2000820218BF0F20D2B218BF904004F00F0109
:100E300018BFC04301FA02F1C4F3812418BFC3B242
:100E4000C9B2022C43EA01000CD0032C10D0012CB3
:100E500005D000F093F9CBE7012AC9D9DBE700F010
:100E600085F9C5E700F092F9C2E700BF241A002017
:100E700000F04CF9BCE7E7B2C4F3032435B12046D7
:100E800000F056F93846FFF770FEB1E73846FFF735
:100E900075FE204600F056F9AAE7E7B2A7F1F00385
:100EA000042B3FD8DFE803F003230F161F003DB1EA
:100EB000B8F1040F9CD8C4F3042000F04DF997E773
:100EC000B8F1050FF6E7C4F30420002DE2D100F0DD
:100ED0002FF98DE725B1C4F3042000F022F987E74C
:100EE00000F01CF984E71E4B5B785B0704D4C4F365
:100EF0000420002DCED0EAE74DB1C4F304242046EF
:100F000000F016F90321204600F012FD70E70120E1
:100F100000F032FDB8F1010F7FF66AAF022000F059
:100F20002BFD65E74DB1B8F1000F03D03846FFF750
:100F30007DFD5DE7C4F30420C9E7B8F1000F0AD0D6
:100F4000392F0CBF4FF4FA50012004F02CFF384623
:100F5000FFF7BAFD4CE7C4F304209BE7BDE8F88334
:100F6000241A002038B501880446807800F0A0F9E2
:100F7000054600F013F900F0A7F829462046BDE821
:100F80003840FFF705BE000013B5044601460622AF
:100F90006846FFF76FFAA388F3B1BDF800204FF65B
:100FA000FF739A4218D02046FFF72AFC70B900F070
:100FB00023FC88B1A3787BB1084B5B785B070BD52A
:100FC000022002B0BDE8104000F0D6BC2046FFF77A
:100FD000C9FF2046FFF7CEFB02B010BD241A002047
:100FE00008B5002003F008FD002003F021FD00F00B
:100FF00039FC00F067FC01F013FBBDE8084001F08C
:10100000F3BA08B500F0E2FBBDE80840FFF7E8BF1F
:1010100008B500F011FCBDE80840FFF7F2BFC0F3CF
:101020000333062BC2B213D094BF0E33063303F042
:101030000F03012B10D8F02A10D004D8E72A8CBF58
:10104000002001207047F42A14BF002001207047BF
:10105000E72A03D9F12AF7E70020704701207047FB
:1010600013B50446014606226846FFF703FAA38833
:101070006BB1BDF800204FF6FF739A4207D020886D
:1010800000F00AF902B0BDE81040FFF7C8BF002029
:1010900002B010BD82B002AB03E9030002B070479A
:1010A00082B002AB03E9030002B07047704708B595
:1010B000FFF7FCFF08BD000008B5FFF7F8FF014B84
:1010C000187008BD930D00207047FFF7F5BF0000B2
:1010D000024B1B781843FFF7EFBF00BF930D0020B2
:1010E000024B1B781840FFF7E7BF00BF930D0020AD
:1010F000024B1B785840FFF7DFBF00BF930D002065
:10110000704708B5FFF7FCFF08BD000008B5FFF702
:10111000F8FF014B187008BD920D00200020FFF76A
:10112000F5BF012303FA00F0C0B2FFF7EFBF0000E4
:10113000034A0123834010781843C0B2FFF7E6BF8B
:10114000920D0020034A01238340107820EA030017
:10115000FFF7DCBF920D0020034A01238340107883
:101160005840C0B2FFF7D2BF920D0020024B1B784F
:101170001843FFF7CBBF00BF920D0020024B1B7836
:101180001840FFF7C3BF00BF920D0020024B1B7831
:101190005840FFF7BBBF00BF920D0020704701F021
:1011A0000703C90830B501EB4101012401399C4016
:1011B0000A44E4B2002112F8015F20FA01F343F37C
:1011C00000036B40234001315D4003291570F2D1CB
:1011D00030BD10B500F00704C00800EB400000224D
:1011E000014410468B5CE34003F00103934001325D
:1011F0001843032AC0B2F5D110BD000082B00B46DF
:10120000ADF80400C0F3072005280AD89DF80410A3
:10121000032906D8044A01EB8001184602B0FFF703
:10122000BEBF02B0704700BF890D002082B0ADF88C
:101230000400C0F30720052809D89DF80430032BCB
:1012400005D8044903EB800002B0FFF7C2BF0020BD
:1012500002B07047890D002073B50D4BADF8040046
:101260001E780C4B1B7807241E4346FA04F3DB0759
:1012700005D4013CF9D20025284602B070BDE5B284
:101280000199284600F0F3FD80B20128F1D0F3E780
:10129000920D0020930D002007B5ADF804000198D1
:1012A000FFF7DAFF019903B05DF804EB00F0DFBD52
:1012B00013B5104BADF804101B782BB1019802B098
:1012C000BDE81040FFF7E8BF70B10198FFF7C4FF19
:1012D000044601460198FFF791FF0199204602B0AC
:1012E000BDE8104000F0C3BD0198FFF79FFF044622
:1012F000F3E700BF880D0020F8B50C4B0C4E1C78AE
:101300000C4D3378A34200D1F8BD05EBC40335F88A
:1013100034005F889A88D98840EA074042EA014150
:101320000134FFF7BDFE04F00704EAE7940D002046
:10133000950D0020960D0020064B10B418885C888F
:101340009A88D98840EA044042EA01415DF8044B9A
:10135000FFF7A6BED60D00202DE9F347234CA37955
:101360000F2B0ED8A37863B1214BA6881D78214B93
:1013700094F8019093F8008094F800A01E4F454522
:1013800002D102B0BDE8F087062221466846FFF789
:1013900071F836B3BDF800204FF6FF739A4220D0A3
:1013A00007EBC5035A784A451BD117F8352052453B
:1013B00017D19A78AAB99A88921B92B2C72A10D8E4
:1013C000A2790A48012161F30712A2719A7961F3A7
:1013D00007129A71FFF7D8FD02B0BDE8F047FFF79A
:1013E0008BBF013505F00705C9E700BFD60D00200A
:1013F000940D0020950D0020960D00202DE9F04F52
:1014000087B0AE4D0DF1080804460146062240465D
:10141000FFF730F80622294604A894F800B094F8A3
:1014200001A0A678A788FFF725F8AB88002B00F06D
:101430003581BDF810204FF6FF794A4500F0E18074
:10144000AA780192002A00F0DC80FB1A9BB2C72B1D
:10145000AA7900F2AB800F2A29464FF0060204A8B1
:101460006AD8FFF707F8BDF810304B45B04612D0E8
:1014700022889A420FD1DEB9AB79012262F30713B9
:10148000AB71FFF759FF2846FFF77EFDAB79A371DB
:101490004FF000084CE08DF810B08DF811A02FB17E
:1014A000BDF810204FF6FF739A4206D1002EEFD000
:1014B000AB7943F00103AB71EAE7002EF8D1804A23
:1014C000804B10781B78804A834210D10298FFF736
:1014D000E3FEC0F30332012AC3B218D810F4706FD0
:1014E00000D02BB32033DBB2072B21D914E002EB61
:1014F000C3014D78554506D112F833505D4502D1F0
:1015000089780029C4D1013303F00703DCE70E32E8
:1015100002F00F02012A05D92046FFF735FDDDF85C
:10152000048005E010F4706FDCD0A2790F2AD9D8BE
:10153000404607B0BDE8F08FFEF79CFFBDF81030C5
:101540004B450ED022889A420BD156B9AB79A37184
:101550002046FFF719FD082221462846FEF78AFF9C
:101560001FE02046FFF77CFD002800F08B80002E56
:1015700000F08880AB791F2B0CD92A88ADF8102099
:1015800004A800228DF81220ADF814708DF81630E2
:10159000FFF7FAFC494808222146FEF76BFFFFF7E8
:1015A000DBFEFFF7C9FE4FF00108C1E70F2A0ED896
:1015B00098E80300FFF76EFD2846FFF7E5FC0822D8
:1015C00000212846FEF7F0FFFFF7B6FE60E706228F
:1015D000294604A8FEF74EFFBDF810304B45C0D099
:1015E0002A8823889A42BCD1002EBAD1AB79A37144
:1015F0002046FFF7C9FC082231462846FEF7D4FFF3
:10160000D1E72E490193062204A8FEF733FFBDF867
:1016100010204FF6FF718A4240D095F80290B9F140
:10162000000F3BD1019BFF1ABFB2C72F2ED84EB37C
:10163000238893421DD1AB79DA0714D40F2B12D92A
:10164000A37103F0F003F02B06D0A379C3F30312C8
:10165000013262F30713A3712046FFF795FC174888
:10166000082221467AE7082221461448FEF702FFA5
:1016700099E72046FFF7F4FC00288BD1AB7943F0C3
:101680000103AB712046FFF77FFC8CE798E803006D
:10169000FFF700FD09480822494693E7002EF1D0E4
:1016A0002046FFF7DDFC0028ECD008222146034845
:1016B000FEF7E0FE0148FFF7AAF970E7D60D00201B
:1016C000950D0020940D0020960D0020F0B587B0F8
:1016D0006C4684E803002046FFF790FE2F4FBDF8CC
:1016E00004202F4D0646A0B194E803000490ADF805
:1016F00014103AB1BDF810204FF6FF739A4201D092
:10170000FFF7CEFC274C28783B7883422BD107B0DB
:10171000F0BD94E8030004AB83E80300029029784D
:101720003878002AEED0BDF808404FF6FF72944298
:10173000E8D0441C04F007048C420AD01946194B27
:10174000082203EBC000FEF795FE3C70FFF7D4FDC6
:10175000D8E7FFF75DFC0822314613483E702E7033
:10176000FEF722FFCEE704EBC000FFF747FE00289C
:10177000CDD02B7834F8330004EBC3035E889A880D
:10178000D98840EA064042EA0141FFF789FC2B78FC
:10179000013303F007032B70B5E700BF950D002060
:1017A000940D0020960D0020D60D0020024B01461E
:1017B000186803F0DBB900BF000C0020024B0146A3
:1017C000186803F0EDB900BF000C0020014B186849
:1017D00003F000BA000C0020024B93F90000C0F3A4
:1017E000C7007047FE0D0020024B187800F007007C
:1017F000704700BFFE0D0020034B187810F0070063
:1018000018BF0120704700BFFE0D0020014B187863
:10181000704700BF210E0020024B1A781043187049
:10182000704700BF210E0020024A137823EA00030C
:1018300013707047210E0020014B00221A70704770
:10184000210E0020024B1A7810431870704700BF19
:10185000200E0020024A137823EA00031370704719
:10186000200E0020014B00221A707047200E00202D
:10187000014B1878704700BFFF0D0020704708B576
:10188000FFF7FCFF08BD0000064A5278520708B572
:1018900006D5054A1178814202D01070FFF7EFFF9C
:1018A00008BD00BF241A0020FF0D002008B5044B1E
:1018B0001A781AB100201870FFF7E1FF08BD00BFC9
:1018C000FF0D002010B5124B124A1B781278124CF3
:1018D0001343124A20681278037032B11343037025
:1018E00003F0C2F808B1FFF7E1FF24680C49202299
:1018F0002046FEF78DFD48B1214609482022FEF71B
:10190000B9FD2046BDE8104003F054B810BD00BF3B
:10191000210E0020200E0020000C0020FF0D0020D2
:10192000DE0D0020704708B5FFF7FCFF08BD000082
:101930000A4A5278520710B50CD5094C41EAC00149
:101940002170FFF7F5FB94F90000C0F3C700FFF723
:10195000EAFF10BDBDE81040FFF7EABB241A0020E3
:10196000FE0D002008B5034B00201870FFF7DBFFC9
:1019700008BD00BFFE0D002008B50C4A92F90030EA
:1019800023EA000040B2107042070ED1DBB283425E
:101990000BD0074B5B785B0707D5C0F3C700FFF799
:1019A000D1FBBDE80840FFF7DDBF08BDFE0D0020FC
:1019B000241A0020094A08B55378C3F380018142F4
:1019C0000AD060F382035370108800F03CF8BDE841
:1019D00008400220FFF7D0BF08BD00BF241A002036
:1019E000044B5878C0F3800080F0010000F0010043
:1019F000FFF7E0BF241A00200120FFF7DBBF002023
:101A0000FFF7D8BF08B500F06FFFBDE808404FF6FC
:101A1000FF71002000F04ABF08B5002000F0F9FE79
:101A20004FF6E763984203D1BDE8084002F0C8B81A
:101A3000002008BD022000F0DDBE032000F0DABE69
:101A4000042000F0E6BE0146042000F02FBF01464E
:101A50000F2000F039BF0146132000F035BF0020F1
:101A6000FFF7F9BF08B50020FFF7F1FFFFF7F7FF19
:101A700008BD000010B500F037FF4FF6E761002009
:101A800000F014FF0021022000F002FF00210320DB
:101A900000F0FEFE194B00244FF4A05104201C70EE
:101AA00000F004FF2146062000F0F2FEFF2107208F
:101AB00000F0EEFE2146082000F006FF21460D2032
:101AC00000F0E6FE2146182000F0FEFE2146172019
:101AD00000F0DEFE21461C2000F0F6FE214620200C
:101AE00000F0E4FE2146182000F0EEFE204602F051
:101AF0007AF802F0A3F8FFF7B5FF10BD930D0020B0
:101B0000FFF7B8BF01460E2000F0C2BE08B503F0D3
:101B1000FFF8024B1860024B186008BD340E00201D
:101B2000300E002008B503F0F3F8024B1860024BAA
:101B3000186008BD340E00202C0E0020704770473E
:101B400008B5FFF7FCFF08BD704708B5FFF7FCFFBD
:101B500008BD000008B5054800F074FA00F0C2FEA8
:101B6000FFF7ECFFFFF7ECFF08BD00BF3D200108C9
:101B70000120704708B5FFF7FBFF08BD70477047AD
:101B800008B5FFF7FBFFFFF7FAFF08BD08B500F047
:101B90007BFABDE80840FEF7CDBE08B503F0B6F805
:101BA00002F05CF802F086FB00F03EFBFFF7EEFF70
:101BB00001F02AFEFFF7C9FF08BD00002DE9F04F34
:101BC00085B03F4F00F04AFB3E46002420460134DA
:101BD000E4B216F8015B00F081FA062C46D085428B
:101BE000F4D0384B1B789B0701D500F07DFAFFF746
:101BF000C1FF4FF0000801900DF108095FFA88FA63
:101C0000504600F06BFA17F8013B9842044625D085
:101C100043405FFA83FB002501261BEA060F15D01F
:101C2000019B9BB1344214BF012300238DF808505F
:101C30008DF809A08DF80A3003F0A0F840F00100FB
:101C4000ADF80C0099E80300FEF7B8FE0135EDB2DF
:101C50007600042DF6B2E0D107F8014C08F1010836
:101C6000B8F1060FCAD1FFF751FF1BE08542B8D18A
:101C7000154D03F083F82B888342044612D04FF6AB
:101C8000FF73ADF8083000238DF80A3003F076F8C2
:101C900040F00100ADF80C0004AB13E90300FEF7BF
:101CA0008DFE2C8001F002FE02F036FB08B1FFF73A
:101CB00039FF00F0DDFC05B0BDE8F04FFEF768BE6F
:101CC000240E0020380E0020220E002010B500F057
:101CD000D9F8B0F5A44F04462FD2B0F5A04F80F04C
:101CE0009A80DF2815D8CC2878D8A7280AD8A42825
:101CF00066D8012804D0031F9BB2A12B28BF002463
:101D0000204610BDA0F1A8039BB2182B5ED9002479
:101D1000F6E7B0F5804F0BD2B0F5005F80F087801A
:101D2000E728EDD9A0F580739BB2B3F5F85FE5E73E
:101D3000C0F30B0444F42044E2E7B0F5A54F22D2EF
:101D400045F25F23984253D845F23F2398420BD97E
:101D500000F003040123C0F38202A34043EA4213CC
:101D600043F40C439CB2CBE745F21F23984238D88A
:101D700000F003040123C0F38502A34043EA4213A9
:101D800043F40D43EEE745F2BF2398420AD845F2EB
:101D90009F23984200F01F0035D84AF2F40343EA2B
:101DA0000024ADE7A0F5A543403B9BB21F2BAED866
:101DB000040204F4F85444F4204444F0F0049FE78F
:101DC000A0F1240444F48044A4B299E758341E4B93
:101DD000E4B233F8144044F4884491E740F4A0445A
:101DE000F2E700F01F044AF2F10343EA042487E714
:101DF00000F003040123C0F38202A34043EA42132C
:101E000043F40A43AEE700F0C3F8040204F4F854C4
:101E100044F4005474E700F01F0000F0B9F8C4F374
:101E2000431440EA042040F4104084B268E7C0F351
:101E3000042000F0ADF80002E4B200F4F8502043B2
:101E400040F400545CE700BFA480010882B0ADF804
:101E50000410C1F30721052906D89DF80420032AA0
:101E600002D802B002F03BBB002002B0704707B5B9
:101E7000ADF804100199FFF7E9FF03B05DF804EB3A
:101E8000FFF724BFE72850D8DF2807D8312865D0CE
:101E90000ED8292858D02A2867D07047A0F1E0032F
:101EA000072B42D8DFE803F01541242933413D4296
:101EB000392804D0822802D0352840D07047334BCF
:101EC0001A7892075CD15B7813F0080F18BF2920AD
:101ED00070472E4A1378D9074ED4527812F0010F6A
:101EE00023D013F0100F08BFE32018BF0020704765
:101EF000264B1B7813F0040FF2E7244A1378590796
:101F00003CD45278D2073BD413F0100FEDE71F4BAF
:101F10005A78910709D51B7813F0100F08BFE720F6
:101F2000E3E71A4B1B781A07F6D47047174A137861
:101F3000190727D452789107E6D5E4207047134B50
:101F40001B7813F0200FC1E7104B1A7892061BD4B0
:101F50005B7813F0080F18BF392070470B4B1B78C4
:101F600013F0400F18BF2A207047084B1B7813F05E
:101F7000400F18BF3120704739207047E22070476A
:101F8000E0207047E62070473520CEE7241A002075
:101F9000294A1378590707D500F01801082927D1D5
:101FA00000F0F70040F00400190707D500F0180111
:101FB000182926D100F0E70040F014005278D1072C
:101FC00007D500F01801082924D100F0F70040F0EF
:101FD0000100920707D500F01802182A23D100F05B
:101FE000E70040F01100DB0648BF00F0E700704753
:101FF00000F01401042904BF00F0FB0040F00800C9
:10200000D2E700F01401142904BF00F0EB0040F007
:102010001800D3E700F01101012904BF00F0FE0011
:1020200040F00800D5E700F01102112A04BF00F0CB
:10203000EE0040F01800D6E7241A00200020704778
:1020400000207047014B1860704700BF040C00204F
:10205000FFF7D8BC08B500F001F94FF47A7003F02F
:10206000A2FE00F0FBF8002000F038F8C30705D509
:10207000FFF7EEFFBDE8084002F0A8BE08BD08B5B6
:10208000FFF7E8FF08BD000008B5FFF7C5FC08B979
:10209000FFF736FDFFF7CEFC084B1870FFF7D0FCBA
:1020A000074B1880FFF7EBFFFFF7C7FCFFF70DF8B2
:1020B000044B1878BDE80840FFF723B8380E00201D
:1020C000241A0020920D0020704708B5FFF7FCFF8E
:1020D00008BD704708B5FFF7FCFF08BD014B185C51
:1020E000704700BF2C1A002070474FF4B46003F013
:1020F00009BC00BF00BF00BF00BF00BF00BF00BFE2
:1021000000BF00BF00BF00BF00BF704708B5FFF7AA
:10211000ECFF08BD08B5302383F31188012100F0DE
:102120000F039940202220F00F0004F038FF002315
:1021300083F3118808BD000038B50D4D062455F80D
:10214000040B431C01D0FFF7E5FF013C14F0FF0432
:10215000F5D10848FFF7DEFF0748FFF7DBFF074828
:10216000FFF7D8FFBDE838400548FFF7D3BF00BFF1
:10217000E880010801040240000402400700024018
:10218000060002402DE9F843254F57F821305C1C2A
:1021900006460D4640D0302282F311884FF00108E8
:1021A00023F00F0903F00F0308FA03F42146424617
:1021B0004846A4B204F0F3FEA9F81A40002484F3C0
:1021C0001188FFF796FF174A234652F8041B481C54
:1021D00024D021F00F0001F00F01006920FA01F175
:1021E00011F0010F0CBF414600210133DBB2214346
:1021F0004FEA4808042BCCB25FFA88F8E5D157F8CB
:102200002500431C01D0FFF785FF211E18BF0121C7
:102210002846FFF77BFF7455BDE8F8830021E4E70B
:10222000E8800108D880010810B50624FFF784FF74
:10223000224600210748FEF7B7F92246002106484A
:10224000FEF7B2F9204600F035F8BDE81040FEF781
:10225000B9BA00BF2C1A0020261A002037B5002476
:102260000094ADF80440E1B268460134FFF78AFFFC
:10227000062CF8D10D4822466946FEF7C9F8002819
:1022800014BF0125002504D0084822466946FEF700
:10229000F1F8074905482B46062200F00DF80446E0
:1022A000FEF792FA204603B030BD00BF261A002088
:1022B0002C1A0020704700002DE9F041DFF858800B
:1022C00006460D46174633B1012388F8003002F068
:1022D0001FFD104B186098F800401CB900242046E0
:1022E000BDE8F0810B4B186802F054FD0428F5D9C5
:1022F0003A4631462846FEF78BF840B13A46314619
:102300002846FEF7B7F8002388F80030E7E70446D0
:10231000F9E700BF3C0E0020400E002008B503F096
:102320008BF8FFF73AFCBDE8084003F09BB808B50E
:1023300003F09EF8FFF742FCBDE8084003F0B8B890
:1023400008B502F0A9FC03F075F8FFF703FCFFF7EE
:10235000E5FFFFF7ECFFFFF713FCFAE7164B1B78DE
:10236000D90707D5154B187840007F2820D808B327
:10237000C0B270479A0703D5104B18788000F4E775
:102380005B0703D50D4B1878C000EEE70C4B1B78AC
:1023900063B10C4A0949127808789342F4D210FBD1
:1023A00003F0C000B0FBF2F080B2DEE70820DFE708
:1023B0007F20704701207047480E00200D0C002040
:1023C000470E00200C0C0020144B1B78D90705D5B4
:1023D000134B18788008F8B1C0B270479A0703D53C
:1023E0000F4B18784008F6E75B0705D50C4B1878BB
:1023F0007F28F0D97F2070470A4B1B7853B10A4AD7
:1024000007491278087893423CBF10FB03F0B0FBF9
:10241000F2F0EDE70120DFE701207047480E0020D1
:10242000090C0020460E0020080C002008B5A0F181
:10243000CD03122B10D8DFE803F00A1013192E2E4B
:102440002E2E2E2E2E2E1C21252B363C4100FFF742
:1024500085FF40421C4BD87008BDFFF77FFFF9E7AE
:10246000FFF77CFF4042184B9870F5E7FFF776FFC7
:10247000F9E7FFF7A9FF144B1871EDE7FFF7A4FF89
:102480004042F8E7FFF7A0FF40420F4B5871E3E7E7
:10249000FFF79AFFF9E70C4AD138517801238340BE
:1024A0000B435370D8E7094A137843F001031370C4
:1024B000D2E7064A137843F00203F8E7034A137899
:1024C00043F00403F3E700BF490E0020480E00204C
:1024D00030B5414BCD2893F9041093F9052093F9B9
:1024E000024093F9035012D1002D01DA0022DA7074
:1024F000D9789A780A4351B20AB9384A11701A79D0
:102500005B7913435AB20BB9354B1A7030BDCE28E4
:1025100002D1002DEADCEBE7CF2804D1002CE7DA6A
:1025200000229A70E4E7D02802D1002CF8DCDFE723
:10253000D92804D10029DBDD00221A71D8E7DA2876
:1025400002D10029D4DAF7E7DB2804D1002ACFDA58
:1025500000225A71CCE7DC2802D1002AF8DCC7E758
:10256000D1380E28C4D801A252F820F0A9250108BC
:10257000A9250108A9250108A9250108A9250108FF
:10258000A9250108A9250108A9250108F1240108A8
:10259000F1240108F1240108F1240108B7250108FC
:1025A000C3250108CD2501085A780121814022EA7E
:1025B00001025A709CE70B490A7822F001020A7066
:1025C00096E708490A7822F00202F8E705490A78F6
:1025D00022F00402F3E700BF490E0020470E00205E
:1025E000460E0020480E002008B502F0C7FB094B3C
:1025F0009A78D9780A431CBF074A10801A795B7908
:102600001A431CBF054B1880BDE80840014802F082
:10261000E9B900BF490E0020440E0020420E002000
:1026200008B5062205480021FDF7BEFF044A002335
:102630001370044A1370044A137008BD490E002039
:10264000470E0020460E0020480E002090F9023070
:102650005BB990F9033043B990F904302BB990F984
:102660000500003818BF01207047012070470000A6
:1026700037B5574C062221466846FDF7FBFE00237E
:102680009DF80320A370E370237163719DF80230FD
:1026900013430AD04F4B188802F075FB4E490B7854
:1026A0003BB34E4A127890422DDC9DF804309DF8E1
:1026B000052013430BD04A4B188802F064FB4949AC
:1026C0000B78002B4CD0484A1278904252DC40489C
:1026D000694602F093FA18B93D48FFF7B7FF08B111
:1026E000FFF782FF062269463948FDF7C3FE03B0B3
:1026F00030BD3E4A127802EB8202B0EB420FD4DDCD
:1027000001330B7001E0FF2BFAD19DF902503DB16E
:10271000FFF724FE002DD4BFFF2301234343A37002
:102720009DF903503DB1FFF719FE002DD4BFFF23E3
:1027300001234343E37094F90230002BB5D094F9A0
:102740000320002AB1D0B5214B431B1208BF01233F
:10275000A37001FB02F31B1208BF0123E370A4E77F
:10276000234A127802EB8202B0EB420FAFDD013355
:102770000B7001E0FF2BFAD19DF904503DB1FFF73A
:1027800023FE002DD4BFFF230123434323719DF972
:1027900005503DB1FFF718FE002DD4BFFF230123E4
:1027A0004343637194F90430002B90D094F90520D1
:1027B000002A8CD0B5214B431B1208BF0123237183
:1027C00001FB02F31B1208BF012363717FE700BF07
:1027D000490E0020440E0020470E00200E0C002061
:1027E000420E0020460E00200A0C00200F0C002094
:1027F0000B0C002007B50023014601220DF1070054
:102800008DF8073000F072F89DF8070003B05DF80E
:1028100004FB07B50023014602220DF10600ADF8C6
:10282000063000F063F8BDF8060003B05DF804FB65
:1028300007B50422014600230DEB0200019300F0CE
:1028400055F8019803B05DF804FB07B501228DF837
:10285000071001460DF1070000F04DF803B05DF8D8
:1028600004FB07B50222ADF8061001460DF1060083
:1028700000F041F803B05DF804FB07B504220191B4
:1028800001460DEB020000F036F803B05DF804FBE2
:1028900038B50C460546FFF7ADFFA04205D02146EE
:1028A0002846BDE83840FFF7D0BF38BD38B50C46E4
:1028B0000546FFF7AEFFA04205D021462846BDE8F9
:1028C0003840FFF7CEBF38BD38B50C460546FFF798
:1028D000AFFFA04205D021462846BDE83840FFF7AB
:1028E000CCBF38BD00F04CB900F03CB80B460146F7
:1028F000184600F051B80B460146184600F0DAB809
:1029000008B5064B4FF4806200211846FDF74CFED7
:102910004FF48162C0F8002408BD00BF500E0020B3
:1029200010B5064C94F8043433B900F0ABF910B18B
:10293000012084F8040410BD0220FCE7500E0020A2
:1029400010B5074C94F804343BB100F0DDF918B130
:10295000002384F80434012010BD0220FCE700BFEE
:10296000500E002038B5FFF7DBFF044618B9FFF71B
:10297000E7FF204638BD00F091F90546FFF7C0FF9C
:10298000012C06D1FFF7DCFF00280CBF002505F065
:1029900001052C46EDE7000008B5034608469918E6
:1029A000B1F5806F05D804491944FDF763FD012096
:1029B00008BD0020FCE700BF500E0020F8B5064619
:1029C0000F4615460024AC4201D10120F8BD07EBAB
:1029D000840106EB840000F0E3F90028F6D001340E
:1029E000F1E7F8B506460F4615460024AC4201D182
:1029F0000120F8BD57F8241006EB840000F06CF9B4
:102A00000028F6D00134F1E773B500F047F9044629
:102A100028B3FFF785FF1649154E05464FF480721F
:102A20000020FFF7DEFF044688B10FA3D3E900239F
:102A30004FF48061304601F089FA0222CDE90001AD
:102A400069464FF48060FFF7CCFF4400E4B2012DEB
:102A500001D1FFF775FF4FF48163C6F800342046BB
:102A600002B070BDAFF3008025232284E49CF2CB3A
:102A7000500E0020044BD3F80034B3F5006F01D39F
:102A8000FFF7C2BF01207047500E002010B5084C60
:102A90000146D4F8000400F01FF940B1D4F8003426
:102AA0000433C4F80034BDE81040FFF7E3BF10BDA5
:102AB000500E00208318B3F5806F2DE9F74F0646BE
:102AC0000F46154621D82C4C044421463846FDF7C4
:102AD0009FFC00284ED02A4639462046FDF7CAFC06
:102AE000FFF71EFF804670B14FF0000A4FF0000B59
:102AF00085B9FFF7BFFF0446B8F1010F06D1FFF714
:102B00001FFF10B102E0FFF71BFF0024204603B0B7
:102B1000BDE8F08F052DA946C6F3024328BF4FF04C
:102B2000050943EAC903CDE900AB4A468DF80030F8
:102B30003946330A0DF103008DF801308DF802603B
:102B4000FDF798FC0098FFF7A1FF012804460CD17F
:102B5000012D04D1A5EB09054E444F44C8E7019867
:102B6000FFF794FF01280446F4D014F0FD0F18BFBE
:102B70000024C1E70124C9E7500E00200000000036
:102B80002DE9FF41FFF7BCFE00F0C6F830B9FFF7B2
:102B9000B7FE0024204604B0BDE8F0813849384D26
:102BA0004FF480720020FFF709FF90B332A3D3E9FE
:102BB00000234FF48061284601F0C8F9022206463E
:102BC0000C464FF4806002A9FFF7F8FEDDE902230E
:102BD0009C4208BF964201D0FFF792FE4FF48164F9
:102BE00001A9204600F0DCF8002839D0019BB3B3DE
:102BF00013F0C00F04F104070293D9B20CD0C5F84A
:102C00000074FFF701FF04460028C3D1FFF778FEE8
:102C1000C0E7FFF775FEBAE70E0403F47F42C3F383
:102C2000074306F4E02613431E434FEAD10806EBA0
:102C3000D101B1F5806FE2D818F0060F17D003A9C3
:102C4000384600F0ADF80028D9D0083442460DF1DE
:102C50000B01A819FDF70EFCB4F5006FC0D30120DD
:102C6000C5F800440028CCD0FFF704FFCBE73C4672
:102C7000ECE700BFAFF3008025232284E49CF2CB75
:102C8000500E002008B50021034803F011FCB0FAF3
:102C900080F0400908BD00BF201B0020F8B50C4F94
:102CA0000C4E002501243B689D4201D32046F8BD0F
:102CB00030680368E91C5B6998470128306888BF61
:102CC000002403F09DFB012888BF00240135EAE7BA
:102CD000100C002058120020094B73B51D68094BD9
:102CE000064618680368C943DC68019101AB0422F9
:102CF0007119A047B0FA80F0400902B070BD00BF62
:102D0000140C00205812002008B5024803F0DEFB26
:102D1000012008BD201B00202DE9F0411A4D1B4B5E
:102D20002B60FFF7F1FF286803685B689847184B32
:102D3000B3F8226A00240746B602A046BB68033BEC
:102D4000A34211D9E11C286803F085FB8044B8F543
:102D5000006F04F10104F1D30E4B28681C600321BD
:102D600003F06CFB0C4B18600A4B1A684FF6FF73AC
:102D70009A4203D0084B1B68B34202D3074802F0C3
:102D8000B3FD0120BDE8F08158120020201B002077
:102D90000070FF1F100C0020140C0020008101089F
:102DA000064B10B50C461968054B0144186803F032
:102DB0005FFB0368DB432360012010BD140C00207F
:102DC0005812002030B585B010F47F4F0190C0F349
:102DD0000725C0F307420DD109B1314B9A5C134668
:102DE0001146002063F3070061F30F2062F31740E0
:102DF00005B030BD9DF80440002939D0284B995CBE
:102E000004EB4400FF234000B0FBF3F06FF05403E9
:102E1000434303EB440303EB4303DBB215FB03F42F
:102E2000C3F1FF036B4324121B12C5F1FF02C4F16F
:102E3000FF04C3F1FF034A434C434B43C2F3072251
:102E4000C4F30724C3F30723C9B2062824D801A575
:102E500055F820F0E32D0108752E01087B2E01089E
:102E6000852E01088F2E0108992E0108E32D0108F7
:102E70001146C5E70B462146B3E718460B461146F7
:102E80000246AEE70B4611461A462346A9E7184606
:102E900013460A460146A4E713462246A1E700BFAF
:102EA0007882010884B0012104B0FFF78BBF70471E
:102EB00084B004B0FFF7F6BF13B58DF802208DF88B
:102EC00000008DF8011000981C46FFF7F1FFC0F3D9
:102ED0000743C0F3072262702070A37002B010BDD8
:102EE000C82A28BFC822FFF7E7BF0000084A1378A6
:102EF000012B09D8012161F347031370D378C82B44
:102F000084BFC823D3707047492BF7D92421F2E737
:102F1000341A00200820FFF78BBC08B5FFF7E6FF46
:102F20000146BDE808400820FFF7CEBC014B1868F9
:102F3000FFF7F3BF341A0020014B1868FFF7EDBF0D
:102F4000341A0020034B0448186000221A71FFF75E
:102F5000E4BF00BF341A00200300FFC8034B1B78F6
:102F600013F0010018BF5808704700BF341A002042
:102F7000024B187800F00100704700BF341A00209F
:102F8000044A1379022B9CBF0133137108B1FFF778
:102F9000CDBF7047341A00200120FFF7F1BF0000B9
:102FA000044A13790BB1013B137108B1FFF7BEBF9F
:102FB000704700BF341A00200120FFF7F1BF000066
:102FC000014B1879704700BF341A0020014B18716B
:102FD000704700BF341A0020014B5878704700BF7B
:102FE000341A0020014B9878704700BF341A002033
:102FF000014BD878704700BF341A002000F0ACBDF8
:1030000070B5104B104C1A786178104812F001021C
:1030100006D0237803EB43031844FFF7EFFF70BD9E
:10302000A578E67805EB45030344AE4203F10303BC
:10303000EFD9013503F8022C03F8032C03F8012C17
:10304000EDB2F2E7341A00201B0C00203C1A0020DD
:103050000E4B1B78DB0770B416D50D4B0D4E9C78CC
:10306000DD7804EB44033344AC4203F1030302D3A1
:1030700070BCFFF7C5BF013403F8020C03F8031C52
:1030800003F8012CE4B2EFE770BC7047341A00205B
:103090001B0C00203C1A00200A4B1B78DB0707B5ED
:1030A0000DD501ABFFF71CFF9DF806209DF804101D
:1030B0009DF8050003B05DF804EBFFF7C9BF03B04E
:1030C0005DF804FB341A0020064B0279064910B55E
:1030D00004468A5C58789978FFF7DEFF237901333C
:1030E000237110BD341A00204E810108054B10B524
:1030F0000446DA7899780079FFF7CEFF2379013317
:10310000237110BD341A002037B5164D04462878B7
:1031100038B901ABC822FF21FFF7CEFE9DF805307C
:103120002B702179012911D0022913D0B1B9287847
:103130000A46FFF78DFF237903220133B3FBF2F236
:1031400002EB42029B1A237103B030BD00222978A2
:103150001046EEE700202A780146EAE700221046F2
:103160001146E6E75C1200202DE9F04F3A4C94F846
:1031700000E085B01EF0010F05460F46164601938C
:1031800066D04FEA5E03DFF8D8C0DFF8D8801CF8BD
:1031900003C088F800C00EF0FE0EBEF1020F16D17B
:1031A00003ABFFF79DFE9DF80E209DF80C109DF8D7
:1031B0000D00FFF74DFF019B6570A770E670002BB7
:1031C00046D0206805B0BDE8F04FFFF7A6BEBCF1C1
:1031D000090F06D007D8BCF1020F1FD0BCF1060FB3
:1031E000E9D16578E7E7BCF1190FE4D1193B03F0A9
:1031F00001020092C3F34603184ADFF86C9012F8FC
:1032000003A0DFF868B04FF0000899F804305FFAC7
:1032100088F2934204D8FFF7F3FECCE7E678CAE7DA
:1032200002FB0AF0B0FBF3F0009BC0B273B9284474
:1032300099F80230134403EB4303C0B25B443246B7
:103240003946FFF74DFE08F10108DEE7281AEFE7DF
:1032500005B0BDE8F08F00BF341A00204E8201088F
:1032600053820108691200201B0C00203C1A002028
:10327000054910B44C78CA78897808340346E0B21E
:103280005DF8044BFFF770BF341A00200120FFF7F0
:10329000EFBF0000054910B44C78CA788978083C23
:1032A0000346E0B25DF8044BFFF75EBF341A00201E
:1032B0000120FFF7EFBF000010B4074CA178E278BF
:1032C0000831FF2928BFFF210346C9B260785DF8A5
:1032D000044BFFF749BF00BF341A00200120FFF75D
:1032E000EBBF000010B4064CA178E278083921EA5F
:1032F000E1710346C9B260785DF8044BFFF734BF53
:10330000341A00200120FFF7EDBF000010B4074C75
:10331000E278A1780832FF2A28BFFF220346D2B202
:1033200060785DF8044BFFF71FBF00BF341A002020
:103330000120FFF7EBBF000010B4064CE278A17843
:10334000083A22EAE2720346D2B260785DF8044B92
:10335000FFF70ABF341A00200120FFF7EDBF00235A
:10336000FFF702BF2DE9F041144EDFF85880144FEB
:10337000044600253079EAB290420DD8FFF740FEAE
:10338000A37813F0010F237914BF013303F1FF3346
:103390005BB22371BDE8F081B378FF21B1FBF0F19E
:1033A0002079134401FB020003EB4303FA78B97858
:1033B0004344C0B2FFF794FD0135DBE71B0C00204E
:1033C000341A00203C1A00202DE9F74F83782A4E4A
:1033D0002A4C13F0010F14BF4FF0FF3A4FF0010ACF
:1033E0004FF0000933795FFA89F843450DD8FFF7AC
:1033F00007FEBAF1010F237836D103B93379013BC7
:10340000DBB2237003B0BDE8F08FB2781C494244B0
:1034100002EB4202531800255D705FFA8AFB8D545F
:1034200004279D7022782A44D1B252B2202A15DD99
:1034300001F01F0242450AD112480193C2788178F7
:1034400040787A43C2F38702FFF74AFD019B5D444F
:10345000013FEDB2E6D109F10109C3E7002ABEBF81
:10346000327989184AB2E5E732790133B3FBF2F1D8
:1034700002FB1133C4E700BF1B0C00205E120020CA
:103480003C1A0020341A00202DE9F8432B4C2C4D17
:10349000A278E07802EB42032B440021904203F132
:1034A000030320D8274EDFF8A090DFF8A480002780
:1034B0002179FAB291421FD8FFF7A2FD224D23488D
:1034C0002A78017833780A4452B20B445BB2002A5E
:1034D00033702A7003DD2279013A934201DB4942BD
:1034E0000170BDE8F883013203F8021C03F8031CE5
:1034F00003F8011CD2B2D1E7B2FBF1F301FB1323B5
:10350000A1780B4496F90010DBB28A4203EB430327
:103510000EDB99F900108A420ADC98F8032098F82B
:10352000021098F801002B44FFF7DAFC0137BFE7DF
:10353000E9180022EA544A708A70F7E71B0C002051
:103540003C1A00205D1200201A0C0020190C0020EB
:10355000341A00202DE9F8430379DFF8A080DFF862
:10356000A09013FB03F25A43C3F12003552503FB3C
:1035700003F1554303FB0122B5FBF2F5EDB2292D12
:1035800085BFC5F1550404EB440405EB450404EB89
:10359000D47494BF6FEA54046FEA64040646E4B23C
:1035A000002798F80420FBB29A420BD8FFF728FDB9
:1035B0003379104AD3B90121117012781344337151
:1035C000BDE8F8839A0798F802200B49134458BFC6
:1035D000C5F1550003EB4303897854BFC0B22846B8
:1035E0004B442246FFF77CFC0137DAE7202BE4D17D
:1035F000FF21E1E7180C0020341A00201B0C0020EA
:103600003C1A00202DE9F041164FDFF86080164E7D
:10361000044600253A79AA4208DCFFF7F1FC237939
:10362000013303F001032371BDE8F081BB7894F806
:1036300004C07078B1782B4403EB4303B5EB520F11
:10364000434407DABCF1000F07D0F278FFF748FCDB
:103650000135DFE7BCF1000FF7D00022FFF72CFCAB
:10366000F6E700BF1B0C0020341A00203C1A002093
:1036700008B5074B1A786FF300021A701868FFF745
:103680004CFC044B00225A70BDE80840FFF7B8BC60
:10369000341A002069120020044B1A786FF30002DC
:1036A0001A70034B00225A70FFF7AABC341A00208C
:1036B00069120020084B00225A70084B1A784AB948
:1036C00001221A70064B074A1B78C3F300031370DC
:1036D000FFF7E2BF704700BF6912002067120020A9
:1036E000341A00206612002008B5084B08481978E3
:1036F0000B224908FCF73CFE10B9064B01225A7018
:1037000001F03CFB044B188008BD00BF341A0020B8
:10371000200C0020691200206012002010B5164C09
:103720002378DB0727D5F8B124281FD800F07F00C5
:10373000237860F34703237011B12068FFF7EDFB96
:1037400021780E480B224908FCF712FE80B10C4B81
:1037500000225A700B4BA17860780122DA70E2786F
:10376000BDE81040FFF7FBBD0120E1E72420DFE7C3
:10377000FFF7BAFFEEE710BD341A0020200C00203E
:103780006912002060120020054B1B785B08013392
:10379000252B014634BF18460120FFF7BFBF00BFED
:1037A000341A00200120FFF7EFBF0000064B1B7802
:1037B000C3F34603013B13F0FF03014614BF184651
:1037C0002420FFF7ABBF00BF341A00200120FFF711
:1037D000EDBF0121FFF7A2BF034B187840F00100B5
:1037E00018704008FFF7F5BF341A0020034B1B7810
:1037F000DB0701D5FFF73CBFFFF7EEBF341A00200F
:103800000021FFF78BBF000038B5124D2B78FBB9B4
:10381000FEF702F918B9FEF773F9FFF793FBFFF70C
:1038200079FB0D4C2060C0B2012804D8FFF78AFB59
:10383000FFF770FB2060FFF759FB084B2078002250
:103840005A70C30702D54008FFF7DAFF01232B7037
:1038500038BD00BF68120020341A00206912002011
:10386000034B187840F0010018704008FFF7C8BFFC
:10387000341A0020034B1B78DB0701D5FFF70CBF80
:10388000FFF7EEBF341A002008B5064B00221A706D
:10389000054B1B780BB1FFF7E3FFBDE80840FFF7CE
:1038A00023BF00BF6712002066120020304B5A78F9
:1038B0002DE9F041002A58D01A782E4B2E4E1B7855
:1038C000C2EB5303DBB2022AB3701AD12B4A2C4C41
:1038D000D55CF3782BB10027F77001F04FFAB78071
:1038E000308001F04BFA3388C01A80B247F6FE727E
:1038F00090423AD82B4433801F482346BDE8F0411C
:103900001847152A25D009D8092A18D00F2A1BD004
:10391000062A10D01B4C4FF4FA65DAE7232A1CD094
:10392000242A1ED0174B184C182A0EBF28254FF4F6
:10393000FA651C46CDE7154A154CD55CC9E7154A12
:10394000154C5B08D55CC4E7144A154C5B08D55C84
:10395000BFE7144A144CD55CBBE7144B144C1D88CC
:10396000B7E7144C4FF4FA75B3E7BDE8F08100BF38
:1039700069120020341A0020601200204A810108D8
:10398000C9300108AF2E01085535010847810108EB
:10399000ED300108448101086533010841810108C7
:1039A000C93301083E810108893401083C810108BE
:1039B000093101080536010800B11047084738B53C
:1039C00004460D46FFF7CAFAA04207D3FFF7C6FA2E
:1039D000A84203D2BDE83840FFF7E4BE2046BDE868
:1039E0003840FFF7F6BE000038B58D780446002D4C
:1039F00055D1FDF70BFFA4F5F043203B00F022006A
:103A0000142B4CD8DFE803F00B0F14171A1D2023DA
:103A100026292C2F33383B3E414446490D00FFF701
:103A2000E5FE284638BD1F4A1F49FFF7C5FFF8E7E6
:103A30001D4A1C49F9E71D4A1D49F6E71C4A1B4966
:103A4000F3E71C4A1C49F0E71B4A1A49EDE71B4AF9
:103A50001B49EAE71A4A1949E7E71A4A1A49E4E70B
:103A6000194A1849E1E70120FFF7B3FED9E705211C
:103A70000220FFF7A4FFD4E708210620F9E70E2172
:103A80000920F6E714210F20F3E717211520F0E7AE
:103A90001820E9E722211920EBE72320E4E701259C
:103AA000BFE700BFCD370108A5370108B1320108D3
:103AB0008D32010805330108DD3201085933010850
:103AC00031330108B92F0108992F01081D4930B57C
:103AD00007220125082405FA02F303400C831AD0BB
:103AE0000023032B0FD14C8300BF00BF00BF00BFDA
:103AF00000BF00BF00BF00BF00BF00BF00BF00BFCE
:103B0000013AE8D230BD00BF00BF00BF00BF00BF18
:103B100000BF0133E5E700BF00BF00BF00BF00BF2B
:103B200000BF00BF00BF00BF00BF00BF00BF4C838D
:103B3000032BE5D000BF00BF00BF00BF00BF00BF28
:103B40000133F5E70000024002480122082103F09A
:103B500026BA00BF00000240F8B5184E337804467C
:103B60000D461BB9FFF7F0FF01233370302383F3B9
:103B700011880023DAB2AA4203F1010707D3002318
:103B8000B3F5607F11D1002383F31188F8BD02EBF8
:103B90004202A618A05CFFF799FF7078FFF796FF26
:103BA000B078FFF793FF3B46E4E700BF00BF00BFDC
:103BB00000BF00BF00BF0133E2E700BF6B1200206F
:103BC00008B52220FEF716FE232801D0002008BDEC
:103BD000FEF710FE0128F9D12420FEF70BFE431F4B
:103BE00058425841F3E708B568B123212220FEF777
:103BF0004FFE01212320FEF74BFE0521BDE80840C2
:103C00002420FEF745BEFF212220FEF741FEFF21C2
:103C10002320FEF73DFEFF21F0E7704708B5252081
:103C2000FEF7E8FD08BD704710B50446FFF7FBFF3F
:103C3000E1B22520BDE81040FEF72ABE08B50020FD
:103C4000FFF7D1FF0020FFF7EFFF00F0F6FB00F0D9
:103C500086FCBDE808400120FFF7C5BF08B5FFF7A7
:103C6000DCFFFFF7DBFFFFF7DEFFFFF7A9FF18B967
:103C7000BDE80840FFF7E2BF08BDFFF7FBBD08B590
:103C80000346887810B3A3F5EE42023A0F2A14D8FF
:103C9000981EC0B200F06FFC002008BD0120FDF7A7
:103CA00047FA02E00120FDF74DFA0322022101202C
:103CB000FCF77AFDF0E70220F5E7B3F5EE4FEDD023
:103CC00047F201729342E8D10220E8E7B3F5EE4FE4
:103CD000E8D047F201729342EDD00120DDE7FF23E7
:103CE000037070470020704710B50378013B04460D
:103CF000032B0CD8DFE803F0020C1316FFF778F95A
:103D000000B2C0EB0020C823B0FBF3F0607010BD20
:103D1000FFF72EF90028F9D0FFF720F9F6E7FFF7B3
:103D20004FF9F3E7FFF758F96070FFF75BF9A07000
:103D3000EDE738B50378013B0446032B2FD8DFE8C5
:103D400003F002152227FFF747F90546FFF74AF966
:103D50006278C82312FB03F20146FF23B2FBF3F2A1
:103D6000D2B22846BDE83840FFF7F9BA43781BB90C
:103D7000BDE83840FFF790BCFFF772FD6078BDE802
:103D80003840FFF73DBDBDE838404078FFF71EB929
:103D900084784578FFF72CF921460246E1E738BDE3
:103DA000034610F8022B082A05D0092A05D0072A55
:103DB00005D1FFF7BEBFFFF797BFFFF7BDB8FF22E2
:103DC0001A70704708B54378022B03D1BDE808404C
:103DD000FFF7E6BFFFF783FF08BDF8B504460D46C1
:103DE000FFF780FF002840F0B0802378013B122BC2
:103DF00040D8DFE803F00A143A545A666969693F0B
:103E00003F6E7278838E91949F00002363700B2322
:103E1000A37029462046BDE8F84001F0CDBA63788A
:103E2000013B032B26D8DFE803F0020C0F1A00F049
:103E30006FFF030EA370030CE370030A237160711C
:103E4000E7E7FFF7EBFEF4E7671C0026F0B2FEF7AA
:103E500045F90136062E07F8010FF7D1D9E70023FF
:103E6000A370E37023716371D3E76378022B04D0EE
:103E7000052B10D0FF232370CBE7E378A07840EA2E
:103E80000320237940EA0340637940EA036000BAE3
:103E9000FFF7CAFEBDE7A078FFF7EFFEB9E7E278CB
:103EA000A178607800F09EFAC7E762792379A1785B
:103EB000607843EA02235BBAE2789BB200F0A8FA8A
:103EC000A7E700F0BAFAA4E729462046FFF77AFFF1
:103ED0009FE700F013FB60709BE700F011FB030A03
:103EE0006370A07095E76078A378E17840EA0320DA
:103EF00040BA221D80B200F006FB8AE76078A37802
:103F0000E17840EA032040BA221D80B200F012FBA3
:103F10007FE700F024FB7CE700F05AFADBE76078EB
:103F2000A378E17840EA032040BA221D80B200F075
:103F3000ACFA6EE76078A378E17840EA032040BAF3
:103F4000221D80B200F0B7FA63E7F8BD2DE9F04119
:103F50004FF0120C46180546194610460027B54288
:103F600001D3BDE8F08115F8013B83EA0002A2FB12
:103F70000C834801540114EB080440EAD2600CFBA6
:103F8000013343EB00034FEAC218A4184FEAC110F3
:103F900041EB03034FEA022E40EA526014EB08049F
:103FA0004FEA012143EB000341EA126114EB0E04D6
:103FB00043EB01030EEB03013819D0E738B5054692
:103FC0008878002800F0DC80A5F5E045ABB2222B14
:103FD00000F2BB80FDF734FD6A4C013D2080212DAD
:103FE00012D8DFE805F04DBD551B1F59235D692F21
:103FF000B5336D3771973B759F417B8327612B6587
:10400000477F8EA9B31651C5237843F0010323706F
:1040100095E0637843F00803637090E0237843F001
:104020000203F4E7237843F00403F0E7237843F036
:104030000803ECE7637843F00103EDE7637843F0AE
:104040000203E9E7237843F01003E0E7237843F025
:104050002003DCE7237843F04003D8E7FCF7D8FFE0
:10406000237843F08003D2E7237823F00C0343F056
:104070000C03CCE7637823F0030343F00303CBE79F
:1040800023786FF30003C2E763786FF3C303C3E7DA
:1040900023786FF34103BAE723786FF38203B6E71F
:1040A00023786FF3C303B2E763786FF30003B3E7DA
:1040B00063786FF34103AFE723786FF30413A6E748
:1040C00023786FF34513A2E723786FF386139EE7F7
:1040D000FCF79EFF23786FF3C71398E7237823F04C
:1040E0000C0394E7637823F0030395E72378C3F385
:1040F000800282F00102D2B262F3820362F3C30350
:1041000085E76378DA4302F0010262F3000362F3A9
:10411000410381E72378C3F3801282F0010262F346
:10412000861374E7FCF774FF2378C3F3C01282F0A0
:10413000010262F3C7136AE70120FDF7E3FC208860
:10414000FDF781FCFCF764FF002038BD0020F4E798
:104150002378C3F3001282F0010262F3041356E7DE
:104160002378C3F3000282F0010262F300034EE7FA
:104170006378C3F3C00282F0010262F3C3034BE72A
:104180000120E2E7241A00201E4B1F4A70B51E5C76
:10419000C30800F00700D45C1C4AD55C1C4AD35C01
:1041A000034104410541DB0704F0010405F001056A
:1041B00009D48CB93046FCF7D0FC0DB3BDE8704093
:1041C0002C20FCF7CABCE120FCF730FC74B9304667
:1041D000FCF7C3FCE12006E0E620FCF727FC3046B4
:1041E000FCF7BBFCE620FCF76FFCE6E7E620FCF7FB
:1041F0001DFC3046FCF7B1FCE620FCF765FCE9E766
:1042000070BD00BF7883010808840108F8830108A5
:104210001884010870B504460E46207800283DD069
:10422000012838D16378012B0ED1A078A51CFCF7AA
:1042300094FC2C4601343546002DEED06420013D1F
:1042400001F0B1FDEDB2F7E7022B04D1A078A51C77
:10425000FCF7ECFBEDE7032B04D1A078A51CFCF7E1
:1042600033FCE6E7042B01D00134E3E714F8023F06
:104270000B4900250A20CA5C520706D4002DD9D06C
:10428000642001F090FD013DF8E7303B00FB05356F
:1042900014F8013FEFE7FFF777FFCBE770BD00BFF2
:1042A000217E01084FF4965001F02CBB08B5FCF7B5
:1042B000CDF908BD70B5154C154E012323700025AE
:1042C0002278EBB29A4209D8FFF7ECFF2578114823
:1042D0000F4C0022D3B2AB420CD370BD2022102170
:1042E000304602F05CFE20221146304602F057FEB6
:1042F0000135E5E7216923691B0903F00203C1F3D6
:1043000000110B4300F8013B0132E3E76D1200207E
:10431000000802406F1200202DE9F0414FF0000824
:10432000254E264F4546264B1B785FFA88F4A3425C
:1043300002D82846BDE8F081326933691B09C2F30F
:10434000001203F0020313431E4A115D01F0030043
:1043500098422CD043EA8103DBB213551A4A03F08A
:104360000F03D35C3A5D13445BB2032B3B5521DD55
:10437000164A135D0021013320461355FFF796FFBF
:1043800001223B57033308DA104A135D0121013B38
:1043900020461355FFF78AFF01223B57594201F08F
:1043A000030103F0030358BF4B423B55154308F18B
:1043B0000108B8E70022E4E7000802406E1200207E
:1043C0006D1200206F120020288401086C1200205A
:1043D00007207047520002EBC102302303FB00208C
:1043E00026307047062838B510D805290ED8032A7C
:1043F0000CD8FFF7EFFF0546FEF7FCF90402681C36
:10440000FEF7F8F9A4B2204380B238BD0020FCE7E3
:10441000062870B51C460FD805290DD8032A0BD8DD
:10442000FFF7D8FF210A0546FEF732FAE1B2681C11
:10443000BDE87040FEF72CBA70BD2DE9F8430024AA
:104440000025E7B216E0FCF73DF9A0425FFA86F9D5
:1044500014DD4A4641463846FCF736F903464A46DB
:10446000414638460136FFF7D3FF042EEBD1013524
:10447000062D05D000265FFA85F8E4E70123EEE774
:104480000134072CDCD1BDE8F88370B5144600F187
:1044900026055618B44200D170BDA5F12603B3F528
:1044A000A87F06DA2846FEF7A5F904F8010B0135C6
:1044B000F0E70020F9E770B5144600F1260556181C
:1044C000B44200D170BDA5F12603B3F5A87F03DA8D
:1044D00021782846FEF7DCF901340135F0E706289B
:1044E00010B407D8052905D8032A03D85DF8044B72
:1044F000FFF778BF00205DF8044B7047102070472D
:1045000040F28A207047F8B5144600F5BB7556187E
:1045100040F28927B44200D1F8BDA5F5BB73BB4278
:1045200006DC2846FEF766F904F8010B0135F1E7D1
:104530000020F9E7F8B5144600F5BB75561840F2AF
:104540008927B44200D1F8BDA5F5BB73BB4203DC9B
:1045500021782846FEF79CF901340135F1E710B5C2
:104560004FF4BB74204600210134FEF791F9B4F5F5
:10457000806FF7D110BD0F28F7B5054653D840F22C
:10458000FF30FEF737F900284DD14FF4BB7435BB2F
:10459000CDE900552046FEF72DF9671C8DF8000087
:1045A0008DF8015000283ED0012812D13846FEF780
:1045B00021F9A61C8DF80100A8B3431E022B1AD8BE
:1045C0003046FEF717F9E71C8DF8020058B38DF856
:1045D000035000216846FFF71DFE3C46DAE7B4F5BC
:1045E000806F20D02046FEF705F901340028F6D16F
:1045F000013DEDB2CBE7042810D102243046FEF78E
:10460000F9F801360DF8040068B17C2808D104F1EE
:1046100008030DEB0304002304F8073C3746D8E7F2
:104620000134072CEAD103B0F0BD704770477047E2
:1046300070470120704738B504460D46FFF7F5FF77
:10464000FCF7E6FCFCF76AFD256038BD2DE9F0417A
:104650000D4B15461F7804460E46FCF7D9FCFCF7B7
:104660005DFD4FEAC508B44209D1FCF7D1FC3846DC
:10467000FCF74CFD2846FFF7D9FFBDE8F081204646
:10468000FCF782FC4444EEE7920D002070B50D4625
:1046900004992C68064618468B780BB9A6420BD0B5
:1046A000A4EBC0039A424FEAC00606D02046082277
:1046B0003444FBF7DFFE2C6070BDFFF7B8FFFBE76B
:1046C000F8B50746104614460D461E46FFF7B0FFE4
:1046D000E4006442BD4202D02B199A780AB93560D1
:1046E000F8BD1D46F6E7000073B5394D2A7803463C
:1046F0000C46002A31D18A7812B1012002B070BD77
:10470000A0F5F84053380428F7D801A353F820F057
:104710002547010835470108FB46010841470108C4
:104720004F4701082B492C48FFF785FF01232B70C9
:104730000020E3E729492848FFF77DFF0223F6E739
:10474000274B244819680122FFF780FFF0E7254B2B
:10475000224819684FF0FF32F6E7A0F5F846533EBD
:10476000022E1BD847F65540181A897818BF012029
:104770008142DDD0012A03D0022A08D00023D6E7E7
:104780001549174B09681348FFF79AFFF6E71249D6
:10479000144B096811484FF0FF32F5E7FFF749FF66
:1047A0000028AAD02B78012B09D0022BA5D10C4AC6
:1047B00000941268084909484FF0FF3304E0094AA1
:1047C0000094126804490348FFF760FF95E700BFB3
:1047D0007416002070120020701600206816002049
:1047E000300C00202C0C002047F61643984210B5E0
:1047F0000C461BD1FDF70AF8A2780D4B72B100F000
:10480000AA00002813BF01220022292035201A7097
:10481000FCF7CCFFFDF756F8002010BD1B78002BED
:104820000CBF29203520FCF7C9FFF3E70120F4E78E
:1048300075160020F8B5144682789DF818701D464C
:104840002C4B92B11C7000F099FA2B4B188004F19C
:104850002003DBB2072B41D804F007040120A0405D
:10486000C0B2BDE8F840FCF780B91E78A64236D148
:10487000214B188800F087FAC72830D805F12004AA
:10488000AE42E4B225D006F12003DBB2072B06D8F6
:1048900006F007060120B040C0B2FCF76FF9072C04
:1048A00004D93846BDE8F840FCF757B905F00703CE
:1048B00001209840C0B2FCF758F93846FCF74DF992
:1048C00005F007050120A840BDE8F840C0B2FCF79C
:1048D00055B93846FCF741F9072CF1D9F8BD04F178
:1048E0002003DBB2072BF9D804F007040120A04015
:1048F000EAE700BF78160020761600200346A3F5ED
:10490000F843183B07B50846062B3BD8DFE803F011
:10491000171E0410252C330026230093E1231A468A
:1049200047F61A41FFF786FF002003B05DF804FB4D
:1049300027230093E5231A4647F61B41F2E7262377
:104940000093E022E12347F61841EBE72723009389
:10495000E422E52347F61941E4E726230093E22207
:10496000E12347F61C41DDE727230093E622E523F8
:1049700047F61D41D6E728230093E522012347F699
:104980001E41CFE78B7813B1024B00221A70012031
:10499000CBE700BF78160020014B1860704700BFBE
:1049A00080160020024B186808B10368184770474A
:1049B00080160020084B1B686BB1084A127842B180
:1049C000074A92F90020002ABFBF027842700622EF
:1049D00002705B681847704780160020640D002045
:1049E000241A0020034A12681AB102210170936848
:1049F00018477047801600200B4B07B51A88824273
:104A00000ED01880094B1B6853B103228DF80500A6
:104A1000000A8DF80600DB688DF8042001A898478D
:104A200003B05DF804FB00BF7C1600208016002058
:104A30000B4B07B51A8882420FD01880094B1B68B0
:104A40005BB104228DF80500000A8DF80600DB68D2
:104A50008DF804200DEB0200984703B05DF804FBCD
:104A60007A160020801600200B4B1B78821C8BB11D
:104A70000A4B93F90030002BACBF05231D23002007
:104A800012F8011B09B10130C0B2013BDBB2FF2BB0
:104A9000F6D170470523F2E7640D0020241A0020A8
:104AA000F1B1114B1B789BB1104B93F90030002BE7
:104AB0000EDAEF294FEAD10212D8104401F00701B3
:104AC000827801238B40134214BF012000207047DD
:104AD000431C073013F8012F8A4203D08342F9D1D7
:104AE0000020704701207047640D0020241A002028
:104AF00030B50022441C4FF0FF3314F8015F8D42A3
:104B00000BD0B3F1FF3F01D105B953B20132062AF0
:104B1000F3D15A1C01D01844817030BD10B5431C2C
:104B20000022073013F8014F8C4208BF1A708342ED
:104B3000F8D110BDEF294FEAD10307D8184401F08E
:104B40000701827801238B40134383707047EF295C
:104B50004FEAD10308D8184401F0070183780122F5
:104B60008A4023EA020383707047000010B40A4CA5
:104B7000247803460A4644B1084C94F90040002CBE
:104B800003DA5DF8044BFFF7D5BF5DF8044B11461F
:104B90001846FFF7ADBF00BF640D0020241A0020A7
:104BA00010B40A4C247803460A4644B1084C94F9E0
:104BB0000040002C03DA5DF8044BFFF7C8BF5DF836
:104BC000044B11461846FFF7A9BF00BF640D002033
:104BD000241A0020074B1B78023043B1064B93F98F
:104BE0000030002B03DA1E220021FBF7DDBC062279
:104BF000FAE700BF640D0020241A002008B5062241
:104C0000FBF706FC003818BF012008BD704708B547
:104C1000FFF7FCFF08BD000008B50130024BC0B231
:104C20001870FFF7F4FF08BD8416002008B5034B89
:104C300003201870FFF7EBFF08BD00BF84160020AB
:104C4000FFF7EABF08B5034B01201870FFF7DFFF3D
:104C500008BD00BF84160020FFF7F4BF70477047FF
:104C6000704708B5FFF7FCFF08BD704708B5FFF7B0
:104C7000FCFF08BD10B5FFF7F1FFFDF7EFFAFFF7F6
:104C8000EEFF0024E0B2FDF729FA18B90134062C32
:104C9000F8D110BD0120FCE708B501F0D7F9BDE857
:104CA000084000F009BE08B5FBF703FEBDE8084068
:104CB00040F2A46001F077B808B5FCF7BDFDFCF741
:104CC000D1FDFCF783FDFDF7ABFC0020FFF794FE60
:104CD0000020FFF7ADFEBDE80840FBF7F3BD000084
:104CE00008B5302383F3118801F0C3F9044B054A5A
:104CF000186000231360044A136083F3118808BD11
:104D0000901600208C16002088160020FFF7E8BFC0
:104D100070B5302383F31188124D01F0AAF91249BE
:104D20002B680A68C41AA242104A0AD9A3F5833331
:104D3000E03B10682B600E4B04F583340344E034F1
:104D400013600C601668002181F3118809480A4A33
:104D50004FF47A750023E4FB0501FBF7EDFA3044CC
:104D600070BD00BF901600208C1600208816002011
:104D700088598F029F860100A086010008B5FFF7C1
:104D8000C7FF80B208BD10B50446FFF7C1FF001B86
:104D900080B210BD10B50446FFF7BAFF001B10BD6E
:104DA000BFF34F8F0549064BCA6802F4E062134314
:104DB000CB60BFF34F8F00BFFDE700BF00ED00E009
:104DC0000400FA0508B5FFF7EBFF000008B5024B39
:104DD000024A1A60FFF7E4FFFCFF0020EF6916F0BB
:104DE0007047704708B5302383F31188034800F0FB
:104DF00099FC002383F3118808BD00BFE40C002058
:104E000038B5094C104622460D46002142F8041FD1
:104E100040EA0520194600F04DFB2060606800283C
:104E200018BF204638BD00BF9416002090F84A10E5
:104E3000074A0229137807D1012B01D0062B05D18F
:104E4000044B52781A707047024A1370704700BFC3
:104E50009C1600202018002070B504460648036800
:104E60000D460BB100F0EEFD2B462146034A0248E9
:104E7000BDE8704000F0DCBD08180020814E01083C
:104E800038B50C46302383F311880B78042B03D0FC
:104E9000002383F3118838BD124B1B78DB09F7D14F
:104EA000114D2B78002BF3D0104B1B78002BEFD03B
:104EB0000B899B0705D40E4A08230121204601F0E7
:104EC000B5FB28780B4BA0FB03034FF47A72002349
:104ED00000F2E7300021FBF72FFA21468000FFF7B0
:104EE000BBFFD5E7241A002022180020640D002003
:104EF000E8170020A086010038B590F8443003F090
:104F00007F02212A044668D113F0800F90F84530C3
:104F10001ED0022B17D0032B0DD0012B5DD190F8A2
:104F200048200023002A4DD13E4B83632023E363B6
:104F30002264012067E0B0F84820002A4DD13A4BA6
:104F400083630123F3E7394B836301230022EEE7F8
:104F50000A2B39D00B2B0BD0092B3ED190F84830BF
:104F600013F0FD0F39D1324B8363324A0223DEE75F
:104F7000B0F848302BBB90F846502B4B002D14BF97
:104F80000121002119702C4B1A7861F3C7121A7095
:104F900017D1264B1A78A2B1302282F311881878E3
:104FA000264BA0FB03034FF47A72002300F2E73094
:104FB0000021FBF7C1F921468000FFF74DFF85F383
:104FC00011880023A363C1E71B49184B097890F8A7
:104FD00047201A70CD09F4D1DDE7B4F8442040F23F
:104FE00081639A4214D194F84920616894F848305A
:104FF0004D6894F8471043EA0223204694F846206F
:10500000A84708B9002038BD4368A36303689DE73B
:105010000B4B93F89230002BF4D02046BDE838407B
:1050200000F062BBE8170020640D00202218002069
:105030009C1600202D4E0108241A0020A086010095
:10504000340C002010B5064A064C117824784B1C0D
:1050500003F00F039C421EBF034C1370605410BD3D
:10506000AC1A0020AD1A00209C1A002038B5044666
:10507000084605293DD8DFE801F0313C0331313DD8
:10508000302383F31188214D214A0121204601F06C
:105090007DFA204A0321204601F078FA95F8901015
:1050A00005F14402204601F071FA95F8921021B101
:1050B00005F16802204601F069FA174800F0FDFA90
:1050C000002383F31188154B1B7813B10520FFF7DC
:1050D000B9FF0220BDE83840FFF7B4BFFFF7B2FFC9
:1050E000302383F311880C4800F0C4FA002383F3C3
:1050F000118838BD302383F31188074800F0D2FAB5
:10510000002383F311880520E4E700BF340C00205E
:105110006C84010848840108E40C00209E160020DD
:1051200008B5102204480021FBF73EFA034A002389
:105130001370034A137008BD9C1A0020AC1A00209B
:10514000AD1A0020F8B5284D284C28782378002285
:1051500098422FD102B12070F8BD2370244B1E70ED
:10516000244B93F84F10081E18BF0120FFF75EFD77
:10517000EBE723701E4B00221A70FFF79DFD1D4BBD
:1051800093F84F10081E18BF0120FFF759FDDCE708
:105190002370184B93F84F10081E18BF0120FFF71B
:1051A0003BFDD2E7002123700846F8E72370FFF7A4
:1051B00049FDCAE7104E19460122715C013303F024
:1051C0000F0316460529C3D801A757F821F000BFE1
:1051D000AD5101085151010891510108A551010833
:1051E0005B51010873510108AC1A0020AD1A002070
:1051F0009E160020441B00209C1A002070B5174CFE
:1052000004F10802A26504F11C02E26504F1300217
:10521000E26704F18C06B03405463146204600F0C2
:10522000E7F93146204600F00DFA6A6D936B23F4DE
:1052300000239363284601F080F941F2883000F0A2
:10524000B2FD0749284601F065F96A6D936B43F496
:1052500000239363034B00221A6070BD340C0020BE
:105260003884010808180020426D936B23F4002352
:1052700010B59363044601F060F90549204601F03A
:1052800049F9626D936B43F40023936310BD00BF33
:1052900038840108014B1878704700BF201800209F
:1052A00038B50546302383F311881D4C2378042B31
:1052B00020D11C4A238992F90020002A1EDA1A4ABA
:1052C0001278DAB11A070BD420232A460321144896
:1052D00001F0ACF9202229461448FBF7CBF809E08D
:1052E000A36958694FF0FF310C3000F069FD237855
:1052F000042BE9D0002383F3118838BD9B0703D426
:1053000008232A460121E2E7236958694FF0FF315B
:105310000C3000F055FD2378042BEBD1F0E700BFF3
:10532000441B0020241A0020640D0020E8170020F0
:1053300010B53023044683F311880D4B1A78042AE4
:1053400003D0002383F3118810BD1A89120708D5F2
:105350009B6958694FF47A710C3000F031FD0130CF
:10536000EFD0034806232246032101F05FF9E8E766
:10537000441B002010B53023044683F311880D4BE5
:105380001A78042A03D0002383F3118810BD1A89E8
:10539000120708D59B6958694FF47A710C3000F0F8
:1053A0000FFD0130EFD0032302482246194601F0D9
:1053B0003DF9E8E7441B0020202910B403460A46C3
:1053C00008D1064850F8B01F4C68194623465DF8CE
:1053D000044B18475DF8044B704700BF340C0020A5
:1053E00070B50A4C88B004F1B005D4F8B030202272
:1053F0001E6A694600232846B04720B1C1B26846FC
:10540000FEF7EBFCF1E708B070BD00BF340C0020E4
:10541000FFF7E6BC7047704708B5FFF7F9FF02F0E9
:105420006BFBFFF7F7FF08BD08B502F0A7FBFFF71E
:10543000F2FF08BDFFF710BC08B5FFF771FE064884
:10544000FFF7DCFE054B064A1A6041F28830BDE8E2
:10545000084000F0A8BC00BF441B00202418002016
:10546000680D0020014B1868FFF796BA2418002039
:1054700010B50E4CFFF766FE2378052B15D1237867
:10548000052B05D0FCF71EFABDE81040FDF7ACB8BF
:10549000FFF709FCFFF7EEFB0028F0D0034801F00E
:1054A000D7F80248FFF7E0FEE9E710BD441B0020F3
:1054B000FFF796BF030A032B12D006D8012B20D08A
:1054C000022B21D00020034619E0212B11D0222BE2
:1054D000F8D10229F6D80E4B0E4853F8213006E0D9
:1054E000C0B20228EED80C4B0C4953F82030405C77
:1054F00005E00229E6D80A4B53F821300920136051
:105500007047084B1220FAE7074B5B20F7E700BF14
:105510009484010890840108B0840108AC840108D7
:10552000A08401084B850108F084010813B5446B81
:10553000E36F1A681178042915D1217A022912D152
:105540001979128901238B4013420CD101A904F16E
:10555000440000F08BFE024628B1E06F019B017908
:10556000006801F063F802B010BD0C3000F01ABE04
:105570004FF0FF330C3000F015BE443000F0DEBEBB
:105580004FF0FF33443000F0D9BE0C3000F0EDBDD9
:105590004FF0FF310C3000F0E8BD443000F0AEBEFB
:1055A0004FF0FF32443000F0A9BE10B5C36F1A6847
:1055B00011780429044616D1017A022913D15979A8
:1055C000528901238B4013420DD10C3000F088FD2D
:1055D000024640B1E06FA36A41790068BDE810401F
:1055E000043B01F011B810BD406BFFF7DEBF0000B7
:1055F0007FB50346104A43F8042B012643600F4B46
:10560000067202900193CB6800930D4604464B69E5
:105610000A6A0C30314600F041FD094B02940193B7
:10562000AB6800932B69EA69314604F1440000F04D
:10563000FAFD04B070BD00BF78860108E955010885
:105640002D5501080B68302282F311880A7903EB8B
:10565000820290614A79093243F822008A7912B1B4
:1056600003EB8203986102230372C167002383F373
:105670001188704738B5044601250221043000F036
:1056800073FC04F10C0025756FF0010100F0CBFBF9
:1056900084F84C5004F144006FF00101BDE838403B
:1056A00000F0C1BB10B501210446043000F05CFCE1
:1056B0000023237584F84C3010BD38B5044600250E
:1056C0000C3000F002FD04F14400257500F0C2FD2D
:1056D000201D84F84C50012100F046FC2046BDE816
:1056E0003840FFF762BF000090F8443003F06003D9
:1056F000202B05D190F84530212B03D81F2B0BD838
:1057000000207047222BFBD100231A46836300231D
:10571000C263036401207047014B0722F6E700BF14
:10572000780D002073B5C36F1A68117804290446F8
:1057300028D1017A022925D11979128901238B40B8
:1057400013EA02051ED100F14406304600F039FE8E
:10575000C0B1304601A900F089FDE36F1A7E06460C
:105760004AB101981A692946121A3044FAF71CFF07
:10577000E36F1B690193E06F019B0179006832467A
:1057800000F054FF02B070BD00EB81032DE9F3413E
:105790009E6904460D46FEB1302383F3118804EB65
:1057A00085070821301D00F0DFFBFB685B691B6883
:1057B00006F1440813B1404600F065FD01A94046DA
:1057C00000F054FD024650B1019B2946204600F0EE
:1057D0002DFF002383F3118802B0BDE8F081FB6840
:1057E0005A691268002AF4D01B8A013B1342F0D197
:1057F000F36F1B7E002BECD104F14402E5E7093185
:1058000010B550F82140C4B1302383F3118804212E
:10581000601800F0A9FBE26F1368527903EB820372
:1058200004F10C00DB689B69596800F063FC2046BA
:10583000FFF7BBFE002383F3118810BD7047000003
:10584000024B034A1A60034A5A607047B01A00209C
:10585000C81B00200000012070477047FEE70000D1
:1058600070B5144C082560682368A268043B0146A3
:105870008A4219D8D31C1B1AC11E23F003038A4283
:1058800038BF00231844E368DA1C121AC11E22F044
:105890000302994288BF00220021FAF785FE013DEC
:1058A00004F11004DFD170BD53F8046F41F8046BAC
:1058B000DEE700BFA086010838B5084C01230025AB
:1058C00023706560FFF7BCFF0549064800F0E4F966
:1058D0000223237085F3118838BD00BFB81A002059
:1058E00024870108C01A002072B6034BD865034B09
:1058F00003221A70FEE700BFC01A0020B81A002069
:1059000000F0D6B8034A516853685B1A9842FBD836
:10591000704700BF001000E0024AD36A0343D3621D
:10592000704700BFC01A002010B503689C68A242EF
:105930000CD85C688A600B604C6021605960996883
:10594000891A99604FF0FF33836010BD1B68121BEA
:10595000ECE7022938BF022170B504460D46022645
:10596000601900F097FB00F084FB041BA54203D8EC
:10597000751C2E460446F3E7022E04D9BDE870409C
:105980000120FFF7C9BF70BDF8B5144B1446D961AB
:10599000826003F110024260022C1A69026038BF73
:1059A00002245060186108190D4600F066FB0227BA
:1059B00000F05FFB431BA342064606D37C1C28195C
:1059C00000F068FB27463546F2E7022F04D9BDE810
:1059D000F8400120FFF7A0BFF8BD00BFC01A0020AB
:1059E00070B50D46064600F044FB0F490B4653F8D0
:1059F000102F9A4206D12A4601463046BDE8704033
:105A0000FFF7C2BFCB69C41A2C19936828BF2C4674
:105A1000A34202D92946FFF79CFF2246314603489C
:105A2000BDE87040FFF780BFC01A0020D01A0020E8
:105A300010B4036100235DF8044BC2604361FFF7BB
:105A4000CFBF000010B5194C236998420DD00368F0
:105A50004268816813605A609A680A449A60002319
:105A600003604FF0FF33A36110BD2346026843F883
:105A7000102F53600022026022699A4203D1BDE8D0
:105A8000104000F002BB936881680B44936000F003
:105A9000F0FA2269E1699268441AA242E4D91144F9
:105AA000BDE81040091AFFF754BF00BFC01A00201C
:105AB0002DE9F047294E06F11008294F356900F00D
:105AC000D8FAF469AA68011B8A423AD82B681444B0
:105AD0006A68F46113605A6000232B603269BA422D
